:100000000A128A11FA2F00308A000408840A820733
:0A00100000345E340034763400340E
:100A0C001F2D8030F00000300A128A1163250A1263
:100A1C008A11720884000A128A1103200A128A11A0
:100A2C00F00001300A128A1163250A128A11013072
:100A3C00F207720884000A128A1103200A128A1122
:100A4C00003A031D2A2D2B2D072D080083120313AA
:100A5C00071187110712871272037304031D372DB8
:100A6C00382D392D8716023072067304031D3F2D65
:100A7C00402D412D0716033072067304031D472DBC
:100A8C00482D492D8715043072067304031D4F2D14
:100A9C00502D512D0715C030F00000300A128A116C
:100AAC0063250A128A117208303EF00001300A12D6
:100ABC008A1163250A128A110800F1007118672D3A
:100ACC006B2D8312031309146E2D8312031309105B
:100ADC00700888008914F401F5010130F40703183B
:100AEC00F50A0030F5077508803AFF0080307F0268
:100AFC00031D822D65307402031C852D862D732DEC
:100B0C00831203138910F401F5010130F407031863
:100B1C00F50A0030F5077508803AFF0080307F0237
:100B2C00031D9A2D65307402031C9D2D9E2D8B2D5B
:100B3C00080083120313860189018801870185014E
:100B4C00FF30831603138600850087018901880115
:100B5C0083160317890188013830F00000300A121F
:100B6C008A1163250A128A110C30F00000300A1227
:100B7C008A1163250A128A118030F00000300A12A3
:100B8C008A1163250A128A1183120313061CCF2DB6
:100B9C00D02D542E0130F2000030F3000A128A11CD
:100BAC002C250A128A1183120313851CDE2DDF2DCE
:100BBC00022E871407100130F2000A128A11062542
:100BCC000A128A110130F2000030F3000A128A1165
:100BDC002C250A128A11831203130618F62DF72DF1
:100BEC00F12D871007100230F2000030F3000A12CA
:100BFC008A112C250A128A1183120313051D072E44
:100C0C00082E2B2E871407100130F2000A128A11BD
:100C1C0006250A128A110130F2000030F3000A1284
:100C2C008A112C250A128A118312031306181F2EFF
:100C3C00202E1A2E871007100330F2000030F3001C
:100C4C000A128A112C250A128A1183120313851D8C
:100C5C00302E312E542E871007140130F2000A1258
:100C6C008A1106250A128A110130F2000030F300B5
:100C7C000A128A112C250A128A11831203130618E0
:100C8C00482E492E432E871007100430F2000030F6
:100C9C00F3000A128A112C250A128A1183120313EB
:100CAC00861C592E5A2EDE2E0230F2000030F30034
:100CBC000A128A112C250A128A1183120313051C9D
:100CCC00682E692E8C2E871007140330F2000A123E
:100CDC008A1106250A128A110230F2000030F30044
:100CEC000A128A112C250A128A11831203138618F0
:100CFC00802E812E7B2E871007100130F2000030E1
:100D0C00F3000A128A112C250A128A11831203137A
:100D1C00051D912E922EB52E871407100130F2006E
:100D2C000A128A1106250A128A110230F2000030CA
:100D3C00F3000A128A112C250A128A11831203134A
:100D4C008618A92EAA2EA42E871007100330F200A5
:100D5C000030F3000A128A112C250A128A11831210
:100D6C000313851DBA2EBB2EDE2E871407100130FF
:100D7C00F2000A128A1106250A128A110230F200B8
:100D8C000030F3000A128A112C250A128A118312E0
:100D9C0003130619D22ED32ECD2E87100710043034
:100DAC00F2000030F3000A128A112C250A128A1163
:100DBC0083120313061DE32EE42E682F0330F2007A
:100DCC000030F3000A128A112C250A128A118312A0
:100DDC000313051CF22EF32E162F87100714033065
:100DEC00F2000A128A1106250A128A110330F20047
:100DFC000030F3000A128A112C250A128A11831270
:100E0C00031306190A2F0B2F052F8710071001301B
:100E1C00F2000030F3000A128A112C250A128A11F2
:100E2C0083120313851C1B2F1C2F3F2F87100714B5
:100E3C000330F2000A128A1106250A128A110330B5
:100E4C00F2000030F3000A128A112C250A128A11C2
:100E5C00831203130619332F342F2E2F87100710EC
:100E6C000230F2000030F3000A128A112C250A120B
:100E7C008A1183120313851D442F452F682F871465
:100E8C0007100130F2000A128A1106250A128A1183
:100E9C000330F2000030F3000A128A112C250A12DA
:100EAC008A118312031306195C2F5D2F572F87109D
:100EBC0007100430F2000030F3000A128A112C25BE
:100ECC000A128A1183120313861D6D2F6E2FF22FB7
:100EDC000430F2000030F3000A128A112C250A1299
:100EEC008A1183120313051C7C2F7D2FA02F8710D2
:100EFC0007140330F2000A128A1106250A128A110D
:100F0C000430F2000030F3000A128A112C250A1268
:100F1C008A11831203138619942F952F8F2F871004
:100F2C0007100130F2000030F3000A128A112C2550
:100F3C000A128A1183120313851CA52FA62FC92F01
:100F4C00871007140330F2000A128A1106250A12C0
:100F5C008A110430F2000030F3000A128A112C2599
:100F6C000A128A11831203138619BD2FBE2FB82FB4
:100F7C00871007100230F2000030F3000A128A11B9
:100F8C002C250A128A1183120313051DCE2FCF2F85
:100F9C00F22F871007140330F2000A128A1106256B
:100FAC000A128A110430F2000030F3000A128A117E
:100FBC002C250A128A11831203130619E62FE72F28
:100FCC00E12F871007100330F2000030F3000A12F3
:100FDC008A112C250A128A11831203138710071009
:100FEC00CA2D0A128A110028F401F50183010A1294
:040FFC008A119F2D8A
:08400000FF3FFF3FFF3FFF3FC0
:04400E00E42CFF3F60
:00000001FF
